:100000000C94B2010C9406040C94DF030C94DA01F6
:100010000C94DA010C94DA010C94DA010C94DA01F4
:100020000C94DA010C94DA010C94DA010C94DA01E4
:100030000C94DA010C94DA010C94DA010C94DA01D4
:100040000C9471070C94DA010C9453040C942D0455
:100050000C94DA010C94DA010C94DA010C94DA01B4
:100060000C9485040C94DA0121002458004D3320AF
:100070005331303030004D3500244A203D2047397F
:100080003120583520463130303000244A203D2080
:100090004739312058352046353000244A203D204C
:1000A00047393120583120463130303000244A2041
:1000B0003D204739312058312046353000244A2030
:1000C0003D204739312058302E31204631303030F4
:1000D00000244A203D204739312058302E31204617
:1000E000353000244A203D2047393120582D352015
:1000F000463130303000244A203D204739312058E5
:100100002D352046353000244A203D204739312006
:10011000582D3120463130303000244A203D2047D0
:10012000393120582D312046353000244A203D20D9
:1001300047393120582D302E3120463130303000B3
:10014000244A203D2047393120582D302E31204679
:10015000353000244A203D2047393120593520468A
:100160003130303000244A203D2047393120593584
:100170002046353000244A203D204739312059316E
:1001800020463130303000244A203D20473931208C
:1001900059312046353000244A203D20473931204E
:1001A00059302E3120463130303000244A203D2055
:1001B0004739312059302E312046353000244A202D
:1001C0003D2047393120592D35204631303030001F
:1001D000244A203D2047393120592D3520463530DD
:1001E00000244A203D2047393120592D3120463105
:1001F00030303000244A203D2047393120592D31FC
:100200002046353000244A203D2047393120592DE1
:10021000302E3120463130303000244A203D2047F6
:10022000393120592D302E312046353000244A20D6
:100230003D20473931205A352046313030300024B6
:100240004A203D20473931205A3520463530002498
:100250004A203D20473931205A3120463130303054
:1002600000244A203D20473931205A31204635307C
:1002700000244A203D20473931205A302E31204673
:100280003130303000244A203D20473931205A3067
:100290002E312046353000244A203D204739312078
:1002A0005A2D3520463130303000244A203D204739
:1002B0003931205A2D352046353000244A203D2042
:1002C000473931205A2D3120463130303000244A10
:1002D000203D20473931205A2D3120463530002429
:1002E0004A203D20473931205A2D302E31204631C9
:1002F00030303000244A203D20473931205A2D30FB
:100300002E31204635300000000000240027002A4E
:100310000000000000250028002B0000000008005D
:1003200002010000030407000000000000000001BB
:100330000204081020408001020408102001020479
:1003400008102000000000230026002900040404F7
:10035000040404040402020202020203030303036E
:100360000300330C11241FBECFEFD8E0DEBFCDBF9A
:1003700022E0A6E3B1E001C01D92A43AB207E1F782
:1003800011E0A0E0B1E0E8E1FFE102C005900D92CC
:10039000A633B107D9F711E0C2EBD1E004C0219731
:1003A000FE010E948F0DC13BD107C9F70E94BB0718
:1003B0000C948A0F0C9400000895CF92DF92EF9274
:1003C000FF920F931F93CF93DF936C017A018B0100
:1003D000C0E0D0E0CE15DF0581F0D8016D918D0130
:1003E000D601ED91FC910190F081E02DC6010995B7
:1003F000892B11F02196EECF7E01C701DF91CF91BD
:100400001F910F91FF90EF90DF90CF900895FC0126
:10041000538D448D252F30E0842F90E0821B930B69
:10042000541710F0CF96089501970895FC01918D0F
:10043000828D981761F0828DDF01A80FB11D5D9646
:100440008C91928D9F5F9F73928F90E008958FEFB4
:100450009FEF0895FC01918D828D981731F0828D68
:10046000E80FF11D858D90E008958FEF9FEF0895BF
:10047000FC01918D228D892F90E0805C9F4F821B23
:1004800091098F73992708958CEA91E00E943802B0
:1004900021E0892B09F420E0822F0895FC01848D4E
:1004A000DF01A80FB11DA35ABF4F2C91848D90E09E
:1004B00001968F739927848FA689B7892C93A08979
:1004C000B1898C91837080648C93938D848D981303
:1004D00006C00288F389E02D80818F7D8083089596
:1004E000EF92FF920F931F93CF93DF93EC0181E084
:1004F000888F9B8D8C8D981305C0E889F989808140
:1005000085FD26C0F62E0B8D10E00F5F1F4F0F7379
:100510001127E02E8C8DE8120CC00FB607FCFACF25
:10052000E889F989808185FFF5CFCE010E944E02CE
:10053000F1CF8B8DFE01E80FF11DE35AFF4FF082E2
:100540009FB7F8940B8FEA89FB89808180620AC08B
:100550009FB7F894EE89FF896083E889F9898081E3
:100560008370806480839FBF81E090E0DF91CF91B2
:100570001F910F91FF90EF900895CF93DF93EC01BF
:10058000888D8823C9F0EA89FB89808185FD05C0B3
:10059000A889B9898C9186FD0FC00FB607FCF5CFED
:1005A000808185FFF2CFA889B9898C9185FFEDCF35
:1005B000CE010E944E02E7CFDF91CF91089580E0F7
:1005C00090E0892B29F00E94440281110C940000D4
:1005D000089585ED8093BC008091BC0084FDFCCF24
:1005E00010927B01089540915701262F30E0240F8F
:1005F000311D21323105DCF420917B012430C9F416
:10060000FC0180E090E0861758F430915701219169
:10061000DC01A95CBE4FA30FB11D2C930196F3CF53
:1006200080915701680F6093570180E0089581E041
:10063000089582E0089508958FEF9FEF08958FEF5A
:100640009FEF08958091360190E0919581959109F1
:100650000895CF93DF93CB01EA01642F0E94F30248
:10066000CE01DF91CF910895CF93DF931F92CDB745
:10067000DEB7698361E0CE0101960E94F30281E05A
:1006800090E00F90DF91CF910895089580E090E081
:100690000895CF93DF93EC014D815E816F81788562
:1006A0002FB7F8948091A8019091A901A091AA0177
:1006B000B091AB012FBF84179507A607B70710F1BC
:1006C00088810E9465062B8130E082179307D1F064
:1006D0002FB7F8948091A8019091A901A091AA0147
:1006E000B091AB012FBF29813A81820F931FA11DC9
:1006F000B11D8D839E83AF83B8878B8191E089275D
:100700008B839C838B81811105C08C81882319F098
:100710001C8201C080E0DF91CF91089562E0FC016E
:1007200080810C94BD060E947C0FEF92FF920F9384
:100730001F93CF93DF93EC01198218821B821A82D8
:100740001D821C826115710599F18B01CB010E94FC
:100750004F0D7C01BC016F5F7F4F80E090E00E94F5
:10076000B60E009759F099838883FB82EA822C8128
:100770003D81232B81F4FC0110820DC08881998179
:10078000009711F00E942D0E198218821D821C8282
:100790001B821A820DC0FD82EC82B801888199818A
:1007A000DF91CF911F910F91FF90EF900C94480D26
:1007B000DF91CF911F910F91FF90EF9008951F92BD
:1007C0000F920FB60F9211242F933F934F935F9385
:1007D0006F937F938F939F93AF93BF93EF93FF9309
:1007E000E0910201F09103010995FF91EF91BF9112
:1007F000AF919F918F917F916F915F914F913F91B9
:100800002F910F900FBE0F901F9018951F920F926F
:100810000FB60F9211242F933F934F935F936F93D3
:100820007F938F939F93AF93BF93EF93FF93E09149
:100830000001F09101010995FF91EF91BF91AF91F6
:100840009F918F917F916F915F914F913F912F91E8
:100850000F900FBE0F901F9018951F920F920FB61A
:100860000F9211242F933F934F935F936F937F9336
:100870008F939F93AF93BF93EF93FF938CEA91E095
:100880000E944E02FF91EF91BF91AF919F918F9186
:100890007F916F915F914F913F912F910F900FBE7C
:1008A0000F901F9018951F920F920FB60F92112460
:1008B0002F938F939F93EF93FF93E091BC01F0915F
:1008C000BD018081E091C201F091C30182FD12C09F
:1008D00090818091C5018F5F8F732091C60182172F
:1008E00051F0E091C501F0E0E455FE4F958F809303
:1008F000C50101C08081FF91EF919F918F912F9150
:100900000F900FBE0F901F9018951F920F920FB669
:100910000F9211242F933F934F935F936F937F9385
:100920008F939F93AF93BF93EF93FF938091B90001
:10093000887F803609F49CC068F5883209F45BC072
:1009400090F4803109F454C038F4882309F4F2C0DB
:10095000883009F44DC0F2C0883109F44CC08032AF
:1009600009F45DC0EBC0803409F468C048F48033FA
:1009700009F455C0883309F0E1C080937A01D4C0EE
:10098000803509F44FC0883509F45DC0883409F01A
:10099000D5C0D2C0883909F4C3C0A8F4883709F497
:1009A00067C038F4883609F463C0803709F460C042
:1009B000C5C0883809F4B4C0803909F45FC08038F4
:1009C00009F0BCC05BC0803B09F484C038F4803AB5
:1009D00009F466C0883A09F47DC0B0C0803C09F4CF
:1009E000A3C0883C09F4A0C0883B09F486C0A6C017
:1009F0008091A00110C090919F0180919E01981755
:100A000070F5E0919F0181E08E0F80939F01F0E0EF
:100A1000E258FE4F80818093BB0085EC82C08093BA
:100A20007A018AC0E0919F0181E08E0F80939F013F
:100A30008091BB00F0E0E258FE4F808390919F01CF
:100A400080919E016AC0E0919F0181E08E0F8093AA
:100A50009F018091BB00F0E0E258FE4F80838091BF
:100A60007D01811169C081E080937C0184EA5DC0D1
:100A700083E080937B0110927901CFCF809179013F
:100A8000803208F04DC0E091790181E08E0F8093B3
:100A900079018091BB00F0E0E75AFE4F8083BDCF23
:100AA00085EC8093BC0010927B01809179018032AB
:100AB00030F4E0917901F0E0E75AFE4F1082609146
:100AC000790170E089E591E0E0E0F0E009951092AD
:100AD000790134C084E080937B0110925801109218
:100AE0005701E0E0F0E0099580915701811105C0C0
:100AF00081E08093570110923701E091580181E025
:100B00008E0F80935801F0E0E95CFE4F8081809366
:100B1000BB009091580180915701981708F47DCF40
:100B200085E88093BC000AC085EC8093BC001092DD
:100B30007B0104C010927A010E94E902FF91EF91BB
:100B4000BF91AF919F918F917F916F915F914F91E5
:100B50003F912F910F900FBE0F901F901895DC01C1
:100B6000ED91FD918081ED91FD919081ED91FD914F
:100B70006C9163708E2309F064609F2309F06860B4
:100B8000ECECF5E0E60FF11D659565956D936D91C3
:100B90007D918D919D91099423C01AC012C016C0F9
:100BA00010C01EC009C014C013C006C019C009C0BF
:100BB0000DC007C00DC014C062507040804090400E
:100BC0000BC0615070408040904006C06E5F01C015
:100BD0006F5F7F4F8F4F9F4F9E938E937E936E9349
:100BE000089580914B0290914C020C94AF05809136
:100BF000490290914A020C94AF05833081F028F4A9
:100C0000813099F08230A1F008958730A9F08830C2
:100C1000B9F08430D1F4809180008F7D03C0809141
:100C200080008F7780938000089584B58F7702C00D
:100C300084B58F7D84BD08958091B0008F7703C007
:100C40008091B0008F7D8093B00008953FB7F894F5
:100C50008091900290919102A0919202B0919302A2
:100C600026B5A89B05C02F3F19F00196A11DB11D07
:100C70003FBFBA2FA92F982F8827820F911DA11D42
:100C8000B11DBC01CD0142E0660F771F881F991F7F
:100C90004A95D1F7089580915802823030F4F89443
:100CA0008DE492E00E94AF0501C0F8946091540277
:100CB0007091550280915602909157027894089550
:100CC000FC01808191810C942D0ECF93DF93282F0E
:100CD00030E0F901E55EFC4F8491F901E15DFC4FE4
:100CE000D491F901E35BFC4FC491CC2391F08111C5
:100CF0000E94FD05EC2FF0E0EE0FFF1FED5BFC4FB7
:100D0000A591B491EC91ED2381E090E021F480E095
:100D100002C080E090E0DF91CF9108951F93CF93C0
:100D2000DF93282F30E0F901E55EFC4F8491F90153
:100D3000E15DFC4FD491F901E35BFC4FC491CC23FE
:100D4000C1F0162F81110E94FD05EC2FF0E0EE0F8F
:100D5000FF1FEF5EFC4FA591B4919FB7F89411115E
:100D600004C08C91D095D82302C0EC91DE2BDC938B
:100D70009FBFDF91CF911F910895CF93DF9390E0B4
:100D8000FC01E15DFC4F2491FC01E35BFC4F84918D
:100D9000882361F190E0880F991FFC01E95FFC4F07
:100DA000C591D491FC01EF5EFC4FA591B491611106
:100DB00009C09FB7F8948881209582238883EC919D
:100DC0002E230BC0623061F49FB7F8948881322FD4
:100DD000309583238883EC912E2B2C939FBF06C0E4
:100DE0008FB7F894E8812E2B28838FBFDF91CF91A6
:100DF00008958E3008F08E508770806480937C0058
:100E000080917A00806480937A0080917A0086FDD8
:100E1000FCCF809178002091790090E0922B08958A
:100E20008F929F92AF92BF92CF92DF92EF92FF92FA
:100E30006B017C010E9426064B015C01C114D104A8
:100E4000E104F104F1F00E942606DC01CB018819CF
:100E50009909AA09BB09883E9340A105B10570F321
:100E600021E0C21AD108E108F10888EE880E83E07B
:100E7000981EA11CB11CC114D104E104F10419F79E
:100E8000DDCFFF90EF90DF90CF90BF90AF909F901D
:100E90008F900895FC0144815581608171818CEAB5
:100EA00091E00E94DD0142E050E062E371E08CEAF3
:100EB00091E00E94DD0164E170E080E090E00E943A
:100EC00010078CEA91E00E943802892B49F08CEAE5
:100ED00091E00E94160261E070E080E090E0EFCFC8
:100EE00008951F920F920FB60F9211242F933F93E4
:100EF0008F939F93AF93BF938091A8019091A90185
:100F0000A091AA01B091AB0130918F0223E0230F91
:100F10002D3720F40196A11DB11D05C026E8230F31
:100F20000296A11DB11D20938F028093A80190937A
:100F3000A901A093AA01B093AB0180919002909176
:100F40009102A0919202B09193020196A11DB11D50
:100F50008093900290939102A0939202B093930297
:100F6000BF91AF919F918F913F912F910F900FBEA5
:100F70000F901F901895CF93DF9300D000D000D032
:100F8000CDB7DEB7789484B5826084BD84B58160C6
:100F900084BD85B5826085BD85B5816085BD809144
:100FA0006E00816080936E001092810080918100BC
:100FB00082608093810080918100816080938100B4
:100FC000809180008160809380008091B100846076
:100FD0008093B1008091B00081608093B0008091D7
:100FE0007A00846080937A0080917A008260809396
:100FF0007A0080917A00816080937A0080917A00F3
:10100000806880937A001092C10086E892E00E9486
:101010008E038DE792E00E948E0384E792E00E94A7
:101020008E038BE692E00E948E0382E692E00E949D
:101030008E0389E592E00E948E0361E08AE00E94BF
:10104000BD0661E08BE00E94BD0661E08CE00E947D
:10105000BD0661E08EE00E94BD0661E08FE00E9467
:10106000BD0661E080E10E94BD0661E08DE00E9466
:10107000BD0661E081E10E94BD0660E084E10E945E
:10108000BD0660E085E10E94BD06E091BC01F091E3
:10109000BD0182E08083E091B801F091B901108236
:1010A000E091BA01F091BB0180E180831092C4010C
:1010B000E091C001F091C10186E08083E091BE0122
:1010C000F091BF01808180618083E091BE01F09149
:1010D000BF01808188608083E091BE01F091BF01F3
:1010E000808180688083E091BE01F091BF018081A2
:1010F0008F7D808386E892E00E944903882391F0E7
:1011000061E08AE00E948E0660E08BE00E948E061D
:1011100060E08CE00E948E0664EF71E080E090E079
:101120000E9410078DE792E00E9449038823C1F0D6
:1011300064E670E080E090E00E94100760E08AE0E2
:101140000E948E0661E08BE00E948E0660E08CE0DB
:101150000E948E0664EF71E080E090E00E9410072C
:1011600084E792E00E944903882391F060E08AE0DE
:101170000E948E0660E08BE00E948E0661E08CE0AB
:101180000E948E0664EF71E080E090E00E941007FC
:101190008BE692E00E944903882309F448C08EE060
:1011A0000E9465066C018FE00E9465067C0180E16B
:1011B0000E9465068C0162E370E080E090E00E948E
:1011C0001007C114D10441F4E114F10471F40115C4
:1011D0001105C1F461E01AC0CA94CD2831F460E071
:1011E0008EE00E948E0661E015C0EA94EF2851F46B
:1011F00060E08EE00E948E0660E08FE00E948E0626
:1012000061E00CC00130110529F360E08EE00E941E
:101210008E0660E08FE00E948E0660E080E10E9412
:101220008E0662E370E080E090E00E94100782E6A4
:1012300092E00E944903882381F18DE00E946506B7
:101240007C0181E10E9465068C0162E370E080E030
:1012500090E00E941007E114F10429F40115110532
:1012600059F461E00DC0EA94EF2831F460E08DE0BC
:101270000E948E0661E008C00130110591F360E024
:101280008DE00E948E0660E081E10E948E0662E39E
:1012900070E080E090E00E94100784E10E94F9066F
:1012A00085369105B4F508E610E0F8016491611106
:1012B00010C06CE271E080E090E00E94100768E1ED
:1012C0008CEA91E00E94700268EC70E080E090E0AF
:1012D00009C08CEA91E00E9470020F5F1F4F892BBA
:1012E00021F7E7CF0E9410078CEA91E00E943802B4
:1012F000892B49F08CEA91E00E94160263E070E0CD
:1013000080E090E0EFCF62E370E080E090E00E9448
:10131000100785E10E94F90685369105A4F46AE676
:1013200070E0CE0101960E949503CE0101960E94C5
:101330004A07CE0101960E94600662E370E080E0F9
:1013400090E00E94100789E592E00E9449038823FB
:10135000C9F09091A10181E089278093A1018823A0
:1013600019F06DE670E002C066E770E0CE0101960C
:101370000E949503CE0101960E944A07CE01019674
:101380000E9460068AE00E9465068C019093A70186
:101390008093A6018BE00E9465069093A50180933F
:1013A000A4018CE00E9465069093A3018093A201A2
:1013B0000130110509F0C2C00E944B066B017C018F
:1013C0008091040190910501A0910601B09107015F
:1013D000C816D906EA06FB0609F4B0C0A7019601B3
:1013E000281B390B4A0B5B0BDA01C901BA01A901B1
:1013F000B7FF07C044275527BA01481B590B6A0B92
:101400007B0B44305105610571050CF497C0B7FDA5
:1014100043C08EE00E946506019789F48DE00E942A
:101420006506019719F460E471E074C081E10E94DF
:101430006506019709F07AC06BE271E06BC08FE03E
:101440000E946506019789F48DE00E946506019768
:1014500019F46AE171E05EC081E10E9465060197BE
:1014600009F064C067E071E055C080E10E94650644
:10147000019709F05BC08DE00E946506019719F4A1
:1014800066EF70E047C081E10E946506019709F0B0
:101490004DC063EE70E03EC08EE00E94650601978D
:1014A00081F48DE00E946506019719F461ED70E00A
:1014B00031C081E10E9465060197C1F56DEB70E0D6
:1014C00029C08FE00E946506019781F48DE00E949B
:1014D0006506019719F46DEA70E01CC081E10E9475
:1014E0006506019719F56BE970E014C080E10E9470
:1014F00065060197D9F48DE00E946506019719F4FD
:101500006BE870E007C081E10E946506019771F405
:1015100069E770E0CE0101960E949503CE01019625
:101520000E944A07CE0101960E946006C092040103
:10153000D0920501E0920601F09207018091A4018A
:101540009091A501019709F0C2C00E944B066B0162
:101550007C018091040190910501A0910601B09158
:101560000701C816D906EA06FB0609F4B0C0A701B0
:101570009601281B390B4A0B5B0BDA01C901BA0132
:10158000A901B7FF07C044275527BA01481B590BCB
:101590006A0B7B0B44305105610571050CF497C053
:1015A000B7FD43C08EE00E946506019789F48DE087
:1015B0000E946506019719F46AE172E074C081E146
:1015C0000E946506019709F07AC065E072E06BC081
:1015D0008FE00E946506019789F48DE00E94650600
:1015E000019719F464EF71E05EC081E10E94650625
:1015F000019709F064C061EE71E055C080E10E947E
:101600006506019709F05BC08DE00E9465060197B1
:1016100019F460ED71E047C081E10E946506019711
:1016200009F04DC06DEB71E03EC08EE00E94650692
:10163000019781F48DE00E946506019719F46BEA29
:1016400071E031C081E10E9465060197C1F567E94B
:1016500071E029C08FE00E946506019781F48DE05A
:101660000E946506019719F467E871E01CC081E1EA
:101670000E946506019719F565E771E014C080E1E5
:101680000E9465060197D9F48DE00E9465060197D6
:1016900019F465E671E007C081E10E9465060197D3
:1016A00071F463E571E0CE0101960E949503CE01CD
:1016B00001960E944A07CE0101960E946006C092E0
:1016C0000401D0920501E0920601F0920701809199
:1016D000A2019091A301019709F0C2C00E944B069C
:1016E0006B017C018091040190910501A09106019C
:1016F000B0910701C816D906EA06FB0609F4B0C086
:10170000A7019601281B390B4A0B5B0BDA01C901B3
:10171000BA01A901B7FF07C044275527BA01481BE2
:10172000590B6A0B7B0B44305105610571050CF4B4
:1017300097C0B7FD43C08EE00E946506019789F40B
:101740008DE00E946506019719F464EF72E074C0A1
:1017500081E10E946506019709F07AC06FED72E0A1
:101760006BC08FE00E946506019789F48DE00E94AE
:101770006506019719F46EEC72E05EC081E10E948B
:101780006506019709F064C06BEB72E055C080E11B
:101790000E946506019709F05BC08DE00E94650616
:1017A000019719F46AEA72E047C081E10E94650678
:1017B000019709F04DC067E972E03EC08EE00E94DB
:1017C0006506019781F48DE00E946506019719F482
:1017D00065E872E031C081E10E9465060197C1F5BC
:1017E00061E772E029C08FE00E946506019781F4ED
:1017F0008DE00E946506019719F461E672E01CC055
:1018000081E10E946506019719F56FE472E014C04A
:1018100080E10E9465060197D9F48DE00E9465067B
:10182000019719F46FE372E007C081E10E94650639
:10183000019771F46DE272E0CE0101960E9495036A
:10184000CE0101960E944A07CE0101960E946006D1
:10185000C0920401D0920501E0920601F0920701C6
:101860000E94DF0247CCCF93DF931092AF0110921A
:10187000AE0188EE93E0A0E0B0E08093B0019093D9
:10188000B101A093B201B093B30122E131E03093F2
:10189000AD012093AC0125EC30E03093B9012093E9
:1018A000B80124EC30E03093BB012093BA0120EC66
:1018B00030E03093BD012093BC0121EC30E0309347
:1018C000BF012093BE0122EC30E03093C101209390
:1018D000C00126EC30E03093C3012093C201109286
:1018E000C5011092C6011092C7011092C801109252
:1018F0009702109296028093980290939902A09377
:101900009A02B0939B0284E291E0909395028093B7
:10191000940282E08093860224EF31E030938802C3
:101920002093870281E08093890210928A021092AC
:101930008B0210928C0210928D0210928E0293E014
:1019400090937D0230937F0220937E0280938002E9
:1019500010928102109282021092830210928402ED
:101960001092850294E09093740230937602209353
:101970007502809377021092780210927902109289
:101980007A0210927B0210927C0295E090936B0297
:1019900030936D0220936C0280936E0210926F025E
:1019A00010927002109271021092720210927302E1
:1019B00097E09093620230936402209363028093D5
:1019C00065021092660210926702109268021092ED
:1019D000690210926A0296E09093590230935B027A
:1019E00020935A0280935C0210925D0210925E0274
:1019F00010925F02109260021092610262E089E030
:101A00000E94BD0662E088E00E94BD06E6E5F3E0C4
:101A1000E491F0E0EE0FFF1FED5BFC4FA591B49158
:101A2000B0934E02A0934D02E8E3F3E084918093DB
:101A30005102E5E5F3E0E491F0E0EE0FFF1FED5B0E
:101A4000FC4FC591D491D0935002C0934F02E7E36D
:101A5000F3E0949190935202109254021092550226
:101A60001092560210925702EBE3FFE13197F1F723
:101A7000EC91E82381E009F480E0E881E92309F0B2
:101A800082608093530210925802DF91CF910895A3
:101A9000FB01DC0105900D920020E1F70895FC01A7
:101AA00005900020E9F7809590958E0F9F1F08956F
:101AB0002F923F924F925F926F927F928F929F925E
:101AC000AF92BF92CF92DF92EF92FF920F931F934C
:101AD000CF93DF93CDB7DEB7CA1BDB0B0FB6F894FD
:101AE000DEBF0FBECDBF09942A88398848885F843D
:101AF0006E847D848C849B84AA84B984C884DF80AE
:101B0000EE80FD800C811B81AA81B981CE0FD11D91
:101B10000FB6F894DEBF0FBECDBFED010895EE0FF6
:101B2000FF1F0590F491E02D09940F931F93CF931D
:101B3000DF938230910510F482E090E0E091A20200
:101B4000F091A30220E030E0A0E0B0E0309719F17E
:101B5000408151810281138148175907C8F08417C9
:101B6000950769F4109731F012960C93129713961B
:101B70001C9327C00093A2021093A30222C0211538
:101B8000310519F04217530718F49A01BD01EF010E
:101B9000DF01F801DBCF21153105F9F0281B390BE6
:101BA0002430310580F48A819B816115710521F013
:101BB000FB019383828304C09093A3028093A202CB
:101BC000FE01329644C0FE01E20FF31F8193919310
:101BD00022503109398328833AC02091A0023091E4
:101BE000A102232B41F420910A0130910B01309383
:101BF000A1022093A0022091080130910901211532
:101C0000310541F42DB73EB740910C0150910D01C3
:101C1000241B350BE091A002F091A102E217F3071B
:101C2000A0F42E1B3F0B2817390778F0AC014E5F4C
:101C30005F4F2417350748F04E0F5F1F5093A102E6
:101C40004093A0028193919302C0E0E0F0E0CF01C5
:101C5000DF91CF911F910F910895CF93DF9300975C
:101C600009F481C0FC01329713821282A091A20272
:101C7000B091A302109781F420813181820F931FCC
:101C80002091A0023091A1022817390751F5F09355
:101C9000A102E093A00267C0ED0120E030E0CE1782
:101CA000DF0740F44A815B819E0141155105F1F047
:101CB000EA01F5CFD383C28340815181840F951F00
:101CC000C817D90759F488819981840F951F029606
:101CD000918380838A819B8193838283211531053F
:101CE00029F4F093A302E093A2023DC0E901FB8333
:101CF000EA8349915991C40FD51FEC17FD0761F490
:101D000080819181840F951F0296E90199838883D0
:101D1000828193819B838A83E0E0F0E012968D912B
:101D20009C911397009719F0FD01DC01F7CF8D917D
:101D30009C9111979D012E5F3F4F820F931F209121
:101D4000A0023091A1022817390769F4309729F4CD
:101D50001092A3021092A20202C013821282B093C8
:101D6000A102A093A002DF91CF910895A0E0B0E07E
:101D7000ECEBFEE00C945C0DEC01009721F4CB0140
:101D80000E94950DB4C0FC01E60FF71F9C01225084
:101D90003109E217F30708F4A8C0D9010D911C918D
:101DA000119706171707B0F00530110508F49BC00E
:101DB000C80104978617970708F495C002501109C7
:101DC000061B170B019311936D937C93CF010E9417
:101DD0002D0E89C05B01A01AB10A4C01800E911E24
:101DE000A091A202B091A302612C712CE12CF12CE4
:101DF000109709F446C08D919C911197A815B905CB
:101E0000B1F56C0142E0C40ED11CCA14DB0478F1B8
:101E10004C018A189B08640142E0C40ED11C129642
:101E2000BC9012971396AC91B5E0CB16D10440F05C
:101E3000B282A38391828082D9016D937C9309C081
:101E40000E5F1F4F800F911FF90191838083EB2D4F
:101E5000FA2FE114F10431F0D7011396FC93EE93BD
:101E6000129741C0F093A302E093A2023CC068160F
:101E7000790608F43C017D0112960D90BC91A02DCD
:101E8000B7CF8091A0029091A10288169906E1F443
:101E900066167706C8F480910801909109010097B1
:101EA00041F48DB79EB740910C0150910D01841BF8
:101EB000950BE817F907C8F4F093A102E093A0028C
:101EC000F901718360830FC0CB010E94950D7C01E5
:101ED000009759F0A801BE010E94810FCE010E9417
:101EE0002D0EC70104C0CE0102C080E090E0CDB746
:101EF000DEB7EEE00C94780D81E090E0F8940C945D
:101F00008A0FFB01DC0102C001900D92415050404C
:081F1000D8F70895F894FFCF03
:101F1800DC01DC0119FCFFFF0000A40280000000C6
:101F280000007002DD010702BD02380216022A0213
:101F3800000000003403290346031B0322031F0388
:061F48001C030D0A00005D
:00000001FF
